{
  "_format": "hh-sol-artifact-1",
  "contractName": "Transactions",
  "sourceName": "contracts/Transactions.sol",
  "abi": [
    {
      "anonymous": false,
      "inputs": [
        {
          "indexed": false,
          "internalType": "address",
          "name": "sender",
          "type": "address"
        },
        {
          "indexed": false,
          "internalType": "address",
          "name": "receiver",
          "type": "address"
        },
        {
          "indexed": false,
          "internalType": "uint256",
          "name": "amount",
          "type": "uint256"
        },
        {
          "indexed": false,
          "internalType": "string",
          "name": "message",
          "type": "string"
        },
        {
          "indexed": false,
          "internalType": "uint256",
          "name": "timestamp",
          "type": "uint256"
        },
        {
          "indexed": false,
          "internalType": "string",
          "name": "keyword",
          "type": "string"
        }
      ],
      "name": "Transfer",
      "type": "event"
    },
    {
      "inputs": [],
      "name": "getBalance",
      "outputs": [
        {
          "internalType": "uint256",
          "name": "",
          "type": "uint256"
        }
      ],
      "stateMutability": "view",
      "type": "function"
    },
    {
      "inputs": [
        {
          "internalType": "address payable",
          "name": "receiver",
          "type": "address"
        },
        {
          "internalType": "uint256",
          "name": "amount",
          "type": "uint256"
        },
        {
          "internalType": "string",
          "name": "message",
          "type": "string"
        },
        {
          "internalType": "string",
          "name": "keyword",
          "type": "string"
        }
      ],
      "name": "publishTransaction",
      "outputs": [],
      "stateMutability": "nonpayable",
      "type": "function"
    }
  ],
  "bytecode": "0x608060405234801561001057600080fd5b506104d7806100206000396000f3fe608060405234801561001057600080fd5b50600436106100365760003560e01c806312065fe01461003b5780637d0ee35714610059575b600080fd5b610043610075565b60405161005091906102d5565b60405180910390f35b610073600480360381019061006e919061016d565b610094565b005b60003373ffffffffffffffffffffffffffffffffffffffff1631905090565b7f416cfa4330a4565f45c2fd2dd4826a83a37443aba2ce6f79477c7355afac35fa3385858542866040516100cd96959493929190610266565b60405180910390a150505050565b60006100ee6100e984610321565b6102f0565b90508281526020810184848401111561010657600080fd5b6101118482856103f1565b509392505050565b60008135905061012881610473565b92915050565b600082601f83011261013f57600080fd5b813561014f8482602086016100db565b91505092915050565b6000813590506101678161048a565b92915050565b6000806000806080858703121561018357600080fd5b600061019187828801610119565b94505060206101a287828801610158565b935050604085013567ffffffffffffffff8111156101bf57600080fd5b6101cb8782880161012e565b925050606085013567ffffffffffffffff8111156101e857600080fd5b6101f48782880161012e565b91505092959194509250565b610209816103bb565b82525050565b6102188161036d565b82525050565b600061022982610351565b610233818561035c565b9350610243818560208601610400565b61024c81610462565b840191505092915050565b610260816103b1565b82525050565b600060c08201905061027b600083018961020f565b6102886020830188610200565b6102956040830187610257565b81810360608301526102a7818661021e565b90506102b66080830185610257565b81810360a08301526102c8818461021e565b9050979650505050505050565b60006020820190506102ea6000830184610257565b92915050565b6000604051905081810181811067ffffffffffffffff8211171561031757610316610433565b5b8060405250919050565b600067ffffffffffffffff82111561033c5761033b610433565b5b601f19601f8301169050602081019050919050565b600081519050919050565b600082825260208201905092915050565b600061037882610391565b9050919050565b600061038a82610391565b9050919050565b600073ffffffffffffffffffffffffffffffffffffffff82169050919050565b6000819050919050565b60006103c6826103cd565b9050919050565b60006103d8826103df565b9050919050565b60006103ea82610391565b9050919050565b82818337600083830152505050565b60005b8381101561041e578082015181840152602081019050610403565b8381111561042d576000848401525b50505050565b7f4e487b7100000000000000000000000000000000000000000000000000000000600052604160045260246000fd5b6000601f19601f8301169050919050565b61047c8161037f565b811461048757600080fd5b50565b610493816103b1565b811461049e57600080fd5b5056fea26469706673582212208863b9fb13e9423531949912e84e162f24b2dc01b3ab7bec188fc8fb8cb834d064736f6c63430008000033",
  "linkReferences": {},
  "deployedLinkReferences": {}
}